:020000040800F2
:1000000000800120A5040008F5040008F50400089C
:10001000F5040008F5040008F504000800000000DD
:10002000000000000000000000000000F5040008CF
:10003000F504000800000000F5040008F5040008BD
:1000400000000000F5040008F5040008F5040008AD
:10005000F5040008F5040008F5040008F50400089C
:10006000F5040008F5040008F5040008F50400088C
:10007000F5040008F5040008F5040008F50400087C
:10008000F5040008F5040008F5040008000000006D
:10009000000000000000000000000000F50400085F
:1000A000F5040008F5040008F5040008F50400084C
:1000B000F5040008F5040008F5040008F50400083C
:1000C000F5040008F5040008F5040008F50400082C
:1000D000F5040008F5040008F5040008000000001D
:1000E000F5040008F5040008F5040008000000000D
:1000F000000000000000000000000000F5040008FF
:1001000000000000F5040008F5040008F5040008EC
:1001100000000000000000000000000000000000DF
:10012000F5040008F5040008F5040008F5040008CB
:10013000F5040008000000000000000000000000BE
:10014000000000000000000000000000F5040008AE
:10015000F5040008F5040008F5040008F50400089B
:10016000F5040008F504000800000000000000008D
:10017000000000000000000000000000000000007F
:10018000000000000000000000000000000000006F
:04019000F50400086A
:1001940010B5054C237833B9044B13B10448AFF3BD
:1001A40000800123237010BD000000200000000027
:1001B4004005000808B5034B1BB103490348AFF3DE
:1001C400008008BD00000000040000204005000875
:1001D40080B584B000AF0C4B7B6003233B720123DA
:1001E4007B7200233B730023FB720223BB72012149
:1001F400054800F00BF83B1D184600F077F8032182
:10020400014800F039F9FAE70000024080B483B0F5
:1002140000AF78600B46FB70FB78012B2BD17B6819
:100224002D4A934206D12D4B1B6B2C4A43F00103FC
:1002340013634BE07B682A4A934206D1274B1B6B1E
:10024400264A43F00203136340E07B68254A934245
:1002540006D1224B1B6B214A43F00403136335E0A0
:100264007B68214A934231D11C4B1B6B1B4A43F0E0
:10027400080313632AE07B68174A934206D1174B9D
:100284001B6B164A23F0010313631FE07B68144AB7
:10029400934206D1114B1B6B104A23F002031363E4
:1002A40014E07B680F4A934206D10C4B1B6B0B4A3C
:1002B40023F00403136309E07B680B4A934205D1DE
:1002C400064B1B6B054A23F00803136300BF0C376E
:1002D400BD4680BC704700BF0000024000380240A9
:1002E4000004024000080240000C024080B485B0C3
:1002F40000AF78607B685B79032B00F2B8807B6881
:100304005B791A467B681B795B0002FA03F3FB7383
:100314007B681B681A687B681B79194603238B402A
:10032400DB4319467B681B680A401A607B681B68BC
:100334001968FA7B7B681B680A431A600023FB7305
:100344007B689B791A467B681B795B0002FA03F38E
:10035400FB737B681B689A687B681B7919460323C7
:100364008B40DB4319467B681B680A409A607B68B4
:100374001B689968FA7B7B681B680A439A600023B0
:10038400FB737B68DB791A467B681B795B0002FA96
:1003940003F3FB737B681B68DA687B681B79194677
:1003A40003238B40DB4319467B681B680A40DA60F1
:1003B4007B681B68D968FA7B7B681B680A43DA6030
:1003C4000023FB737B681B7A1A467B681B7902FA4D
:1003D40003F3FB737B681B685A687B681B791946B7
:1003E40003238B40DB4319467B681B680A405A6031
:1003F4007B681B685968FA7B7B681B680A435A60F0
:100404000023FB737B685B79022B30D17B681B79FB
:10041400DB08BB737B681B7903F007037B737B6882
:100424001B68BA7B083253F822107B7B0F2202FA36
:1004340003F3DB4318467B681B68BA7B0140083230
:1004440043F822107B681B68BA7B083253F82210E9
:100454007B685B7A1A467B7B9B0002FA03F318469F
:100464007B681B68BA7B0143083243F8221000BF43
:100474001437BD4680BC704780B483B000AF786049
:100484000B46FB707B685B69FA78012101FA02F282
:100494005A407B685A6100BF0C37BD4680BC704728
:1004A4000D488546AFF300800C480D490D4A0023E2
:1004B40002E0D458C4500433C4188C42F9D30A4A15
:1004C4000A4C002301E013600432A242FBD300F083
:1004D40011F8FFF77DFEFEE70080012000000020F8
:1004E4000000002060050008000000201C0000201F
:1004F400FEE7000070B50D4D0D4C641BA4100026E2
:10050400A64209D10B4D0C4C00F018F8641BA41042
:100514000026A64205D170BD55F8043B9847013624
:10052400EEE755F8043B98470136F2E75805000812
:1005340058050008580500085C050008F8B500BF18
:10054400F8BC08BC9E467047F8B500BFF8BC08BCB0
:040554009E46704708
:04055800B9010008DD
:04055C0095010008FD
:04000005080004A546
:00000001FF
