:020000040800F2
:1000000000800120090A0008590A0008590A00085E
:10001000590A0008590A0008590A0008000000009F
:10002000000000000000000000000000590A000865
:10003000590A000800000000590A0008590A00087F
:1000400000000000590A0008590A0008590A00086F
:10005000590A0008590A0008590A0008590A0008F4
:10006000590A0008590A0008590A0008590A0008E4
:10007000590A0008590A0008590A0008590A0008D4
:10008000590A0008590A0008590A0008000000002F
:10009000000000000000000000000000590A0008F5
:1000A000590A0008590A0008590A0008590A0008A4
:1000B000590A0008590A0008590A0008590A000894
:1000C000590A0008590A0008590A0008590A000884
:1000D000590A0008590A0008590A000800000000DF
:1000E000590A0008590A0008590A000800000000CF
:1000F000000000000000000000000000590A000895
:1001000000000000590A0008590A0008590A0008AE
:1001100000000000000000000000000000000000DF
:10012000590A0008590A0008590A0008590A000823
:10013000590A000800000000000000000000000054
:10014000000000000000000000000000590A000844
:10015000590A0008590A0008590A0008590A0008F3
:10016000590A0008590A00080000000000000000B9
:10017000000000000000000000000000000000007F
:10018000000000000000000000000000000000006F
:04019000590A000800
:1001940010B5054C237833B9044B13B10448AFF3BD
:1001A40000800123237010BD000000200000000027
:1001B400C00A000808B5034B1BB103490348AFF359
:1001C400008008BD0000000004000020C00A0008F0
:1001D400034613F8012B002AFBD1181A0138704783
:1001E40080B483B000AF00237B6002E07B680133FE
:1001F4007B607B68044A9342F8D900BF00BF0C3788
:10020400BD4680BC704700BF1FA1070080B584B005
:1002140000AF114B7B6002237B7205237B730023A9
:100224003B730023FB720223BB720D233B723B1D05
:10023400184600F005F90F233B723B1D184600F0E9
:10024400FFF80C233B723B1D184600F0F9F800BF81
:100254001037BD4680BD00BF0004024080B584B0A5
:1002640000AF0C4B7B6001237B7201233B720423A0
:10027400BB730023BB7200233B730023FB72002378
:100284007B733B1D184600F0E9FA00BF1037BD46EA
:1002940080BD00BF0038004080B584B000AF094B7A
:1002A4007B6000233B7200237B720223BB7200231A
:1002B400FB723B1D184600F0C3F800BF1037BD4663
:1002C40080BD00BF0000024080B5B4B000AF214A39
:1002D4003B1D1146CA22184600F0E2FBFFF7DCFF83
:1002E400FFF794FFFFF7BAFF01211B4800F06FFBF3
:1002F40000BF0021194800F019FA0346002BF8D07A
:10030400FFF76EFF0121144800F046FB3B1D184621
:10031400FFF75EFF0346DBB2FB70FB1C01221946AC
:100324000D4800F0F6FA3B1D1846FFF751FF024650
:100334003B1D1946084800F0ECFA00BF802106482E
:1003440000F009FA0346002BF8D10021024800F01E
:1003540023FBCDE7D80A0008003800400000024023
:1003640080B483B000AF78600B46FB70FB78012B40
:100374002BD17B682D4A934206D12D4B1B6B2C4A03
:1003840043F0010313634BE07B682A4A934206D18E
:10039400274B1B6B264A43F00203136340E07B6840
:1003A400254A934206D1224B1B6B214A43F0040396
:1003B400136335E07B68214A934231D11C4B1B6B9C
:1003C4001B4A43F0080313632AE07B68174A9342ED
:1003D40006D1174B1B6B164A23F0010313631FE06E
:1003E4007B68144A934206D1114B1B6B104A23F0CD
:1003F4000203136314E07B680F4A934206D10C4B4B
:100404001B6B0B4A23F00403136309E07B680B4A5C
:10041400934205D1064B1B6B054A23F00803136373
:1004240000BF0C37BD4680BC704700BF00000240CF
:10043400003802400004024000080240000C024060
:1004440080B586B000AF78607B681B6801211846D0
:10045400FFF786FF00237B617B685B79032B00F247
:10046400BF807B685B791A467B681B795B0002FA64
:1004740003F31A467B6913437B617B681B681A6824
:100484007B681B79194603238B40DB4319467B6841
:100494001B680A401A607B681B6819687B681B68C4
:1004A4007A690A431A607B689B791A467B681B79D0
:1004B4005B0002FA03F31A467B6913437B617B6892
:1004C4001B689A687B681B79194603238B40DB43BE
:1004D40019467B681B680A409A607B681B689968A8
:1004E4007B681B687A690A439A607B68DB791A46E1
:1004F4007B681B795B0002FA03F31A467B6913439A
:100504007B617B681B68DA687B681B795B0003216D
:1005140001FA03F3DB4319467B681B680A40DA607F
:100524007B681B68D9687B681B687A690A43DA6050
:100534007B681B7A1A467B681B7902FA03F31A4616
:100544007B6913437B617B681B685A687B681B79F2
:10055400194603238B40DB4319467B681B680A401A
:100564005A607B681B6859687B681B687A690A4310
:100574005A607B685B79022B40F0C6807B681B79EC
:10058400DB083B747B681B7903F00703FB737B6810
:100594001B683A7C083253F82210FB7B0F2202FAC4
:1005A40003F3DB4318467B681B683A7C014008323E
:1005B40043F822107B681B683A7C083253F82210F7
:1005C4007B685B7A1A46FB7B9B0002FA03F31846AE
:1005D4007B681B683A7C0143083243F8221093E09D
:1005E4007B685B79042B17D1494BDB687A681279F5
:1005F400114601228A401146454A0B43D360444BBD
:100604009B687A681279114601228A40D2431146C6
:100614003F4A0B40936035E07B685B79052B17D12B
:100624003B4B9B687A681279114601228A40114635
:10063400374A0B439360364BDB687A68127911466C
:1006440001228A40D2431146314A0B40D36019E05B
:100654007B685B79062B15D12D4B9B687A681279E0
:10066400114601228A401146294A0B439360284BC4
:10067400DB687A681279114601228A401146244ABD
:100684000B43D3607B681B799B08FB747B681B79E5
:1006940003F00303BB747B681B681E4A934216D0A5
:1006A4007B681B681C4A93420FD07B681B681B4AFB
:1006B400934208D07B681B68194A934201D10323F3
:1006C40006E0002304E0022302E0012300E000230B
:1006D4007B74144B5B6C134A43F4804353647A7CFD
:1006E400BB7C9B0002FA03F10F4AFB7C023342F805
:1006F4002310074B1B687A681279114601228A403D
:100704001146034A0B43136000BF1837BD4680BD32
:10071400003C014000000240000402400008024086
:10072400000C0240003802400038014080B485B01B
:1007340000AF78600B46FB707B681A69FB7822FA7D
:1007440003F3DBB203F00103FB73FB7B184614379E
:10075400BD4680BC704780B483B000AF7860396018
:100764007B689A683B681340002B01D0012300E0AA
:10077400002318460C37BD4680BC704780B483B054
:1007840000AF78600B46FB70FB78012B2BD17B68A4
:100794002D4A934206D12D4B5B6C2C4A43F4805373
:1007A40053644BE07B682A4A934206D1274B1B6C67
:1007B400264A43F48043136440E07B68254A93420D
:1007C40006D1224B1B6C214A43F40043136435E0E9
:1007D4007B68214A934231D11C4B5B6C1B4A43F426
:1007E400005353642AE07B68174A934206D1174B9F
:1007F4005B6C164A23F4805353641FE07B68144AED
:10080400934206D1114B1B6C104A23F480431364AA
:1008140014E07B680F4A934206D10C4B1B6C0B4AC5
:1008240023F40043136409E07B680B4A934205D127
:10083400064B5B6C054A23F40053536400BF0C372A
:10084400BD4680BC704700BF003001400038024004
:1008540000380040003C00400034014080B584B0C2
:1008640000AF78607B681B6801211846FFF786FF9C
:100874000023FB607B681B799B001A46FB681343CB
:10088400FB607B685B79012B04D1FB6823F4004394
:10089400FB6014E07B685B79022B04D1FB6843F4B2
:1008A4000043FB600BE07B685B79032B07D1FB689B
:1008B40023F40043FB60FB6843F48063FB607B68C4
:1008C4009B7ADB001A46FB681343FB607B689B79C9
:1008D400DB021A46FB681343FB607B68DB791A462C
:1008E400FB681343FB607B681B7A5B001A46FB685A
:1008F4001343FB607B685B7A5B021A46FB68134315
:10090400FB607B681B68FA681A6000BF1037BD463D
:1009140080BD80B584B000AFF860B9607A60FB68D0
:100924001B6803F00603062B2ED0FB681B6843F0FC
:100934004002FB681A6027E000BF0221F868FFF755
:100944000AFF0346002BF8D0FB681B6803F400631E
:10095400002B0ED0BB681B881A46FB68DA607B68E4
:10096400013B7B607B68013B7B60BB680133BB6000
:100974000AE0BB681B781A46FB68DA607B68013BB7
:100984007B60BB680133BB607B68002BD4D100BFA4
:1009940000BF1037BD4680BD80B483B000AF78601F
:1009A4000B46FB70FB78012B06D17B681B6843F078
:1009B40040027B681A6005E07B681B6823F04002F4
:1009C4007B681A6000BF0C37BD4680BC704780B49A
:1009D40083B000AF78600B46FB70FB78012B06D127
:1009E4007B685B6843F004027B685A6005E07B68BF
:1009F4005B6823F004027B685A6000BF0C37BD4675
:100A040080BC70470D488546AFF300800C480D4903
:100A14000D4A002302E0D458C4500433C4188C4255
:100A2400F9D30A4A0A4C002301E013600432A242BB
:100A3400FBD300F011F8FFF747FCFEE7008001202C
:100A44000000002000000020AC0B00080000002083
:100A54001C000020FEE7000070B50D4D0D4C641B1A
:100A6400A4100026A64209D10B4D0C4C00F026F828
:100A7400641BA4100026A64205D170BD55F8043BA2
:100A840098470136EEE755F8043B98470136F2E7FC
:100A9400A40B0008A40B0008A40B0008A80B000872
:100AA4000A44914200F1FF3300D1704710B511F8A8
:100AB400014B03F8014F9142F9D110BDF8B500BFC5
:100AC400F8BC08BC9E467047F8B500BFF8BC08BC2B
:040AD4009E46704783
:100AD800416E2041726475696E6F20556E6F206299
:100AE8006F6172642069732062657374207375691D
:100AF80074656420666F7220626567696E6E6572E0
:100B0800732077686F2068617665206A7573742032
:100B180073746172746564207573696E67206D699A
:100B280063726F636F6E74726F6C6C6572732C2076
:100B38006F6E20746865206F746865722068616ED6
:100B4800642C2041726475696E6F204D6567612061
:100B5800626F61726420697320666F7220656E74BB
:100B680068757369617374732077686F2072657133
:100B7800756972652061206C6F74206F6620492F3B
:100B88004F2070696E7320666F7220746865697291
:0C0B98002070726F6A65637473000000C7
:040BA400B90100088B
:040BA80095010008AB
:0400000508000A09DC
:00000001FF
