:020000040800F2
:10000000008001206D0C0008BD0C0008BD0C00082C
:10001000BD0C0008BD0C0008BD0C0008000000006D
:10002000000000000000000000000000BD0C0008FF
:10003000BD0C000800000000BD0C0008BD0C00084D
:1000400000000000BD0C0008BD0C0008BD0C00083D
:10005000BD0C0008BD0C0008BD0C0008BD0C00085C
:10006000BD0C0008BD0C0008BD0C0008BD0C00084C
:10007000BD0C0008BD0C0008BD0C0008BD0C00083C
:10008000BD0C0008BD0C0008BD0C000800000000FD
:10009000000000000000000000000000BD0C00088F
:1000A000BD0C0008BD0C0008BD0C0008BD0C00080C
:1000B000BD0C0008BD0C0008BD0C0008BD0C0008FC
:1000C000BD0C0008BD0C0008BD0C0008BD0C0008EC
:1000D000BD0C0008BD0C0008BD0C000800000000AD
:1000E000BD0C0008BD0C0008BD0C0008000000009D
:1000F000000000000000000000000000BD0C00082F
:1001000000000000BD0C0008BD0C0008BD0C00087C
:1001100000000000000000000000000000000000DF
:10012000BD0C0008BD0C0008BD0C0008BD0C00088B
:10013000BD0C0008000000000000000000000000EE
:10014000000000000000000000000000BD0C0008DE
:10015000BD0C0008BD0C0008BD0C0008BD0C00085B
:10016000BD0C0008BD0C00080000000000000000ED
:10017000000000000000000000000000000000007F
:10018000000000000000000000000000000000006F
:04019000BD0C00089A
:1001940010B5054C237833B9044B13B10448AFF3BD
:1001A40000800123237010BD000000200000000027
:1001B400080D000808B5034B1BB103490348AFF30E
:1001C400008008BD0000000004000020080D0008A5
:1001D40080B483B000AF00237B6002E07B6801330E
:1001E4007B607B68044A9342F8D900BF00BF0C3798
:1001F400BD4680BC704700BF8FD0030080B483B07D
:1002040000AF0346FB71FB79FA2B01D1012300E017
:10021400002318460C37BD4680BC704780B584B0B7
:1002240000AFFF23FB7340F209133B815023FB71A2
:10023400FB1D012219461B4800F065FC07F10E0363
:1002440001221946174800F0A1FC07F10F0301220F
:100254001946144800F057FC07F10D030122194612
:10026400104800F093FC7B7B1846FFF7C7FF03465A
:10027400002B13D009233B7201237B72FFF7A8FFE5
:1002840007F1080302221946064800F03CFC07F176
:100294000E0302221946034800F078FC00BF103711
:1002A400BD4680BD0038004080B582B000AFFF235A
:1002B400FB715123FB70FB1C01221946244800F0FA
:1002C40022FCBB1D01221946214800F05FFCFB1DE6
:1002D400012219461E4800F016FC7B1D0122194616
:1002E4001B4800F053FC7B791846FFF787FF034651
:1002F400002B29D000233B713B1D012219461448D1
:1003040000F001FCBB1D01221946114800F03EFC1F
:10031400FFF75EFFFB1D012219460D4800F0F3FBB9
:10032400BB1C012219460A4800F030FCFFF750FFBD
:10033400BB1C01221946064800F0E5FBBB1D012247
:100344001946034800F022FC00BF0837BD4680BDB3
:100354000038004080B582B000AFFF23FB71522308
:10036400FB70FB1C01221946244800F0CCFBBB1D8A
:1003740001221946214800F009FCFB1D01221946FF
:100384001E4800F0C0FB7B1D012219461B4800F0EB
:10039400FDFB7B791846FFF731FF0346002B29D07C
:1003A40009233B713B1D01221946144800F0ABFBA5
:1003B400BB1D01221946114800F0E8FBFFF708FFB6
:1003C400FB1D012219460D4800F09DFBBB1C0122B8
:1003D40019460A4800F0DAFBFFF7FAFEBB1C0122BB
:1003E4001946064800F08FFBBB1D0122194603483D
:1003F40000F0CCFB00BF0837BD4680BD003800408C
:1004040080B584B000AF144B7B6002237B7205235C
:100414007B7300233B730023FB720223BB720D2307
:100424003B723B1D184600F005F90F233B723B1D40
:10043400184600F0FFF80E233B723B1D184600F0EF
:10044400F9F80C233B723B1D184600F0F3F800BF8B
:100454001037BD4680BD00BF0004024080B584B0A3
:1004640000AF0C4B7B6001237B7201233B7204239E
:10047400BB730023BB7200233B730023FB72002376
:100484007B733B1D184600F0E3FA00BF1037BD46EE
:1004940080BD00BF0038004080B584B000AF094B78
:1004A4007B6000233B7200237B720223BB72002318
:1004B400FB723B1D184600F0BDF800BF1037BD4667
:1004C40080BD00BF0000024080B500AFFFF7E4FF2D
:1004D400FFF796FFFFF7C2FF01211C4800F0A8FBBD
:1004E40000BF00211A4800F01BFA0346002BF8D085
:1004F400FFF76EFE0121154800F07FFBFFF78EFE2B
:1005040000BF0021124800F00BFA0346002BF8D07C
:10051400FFF75EFEFFF7C8FE00BF00210C4800F0A5
:10052400FFF90346002BF8D0FFF752FEFFF712FF46
:1005340000BF8021054800F008FA0346002BF8D1DB
:100544000021024800F059FBCAE700BF0038004010
:100554000000024080B483B000AF78600B46FB70AB
:10056400FB78012B2BD17B682D4A934206D12D4B6E
:100574001B6B2C4A43F0010313634BE07B682A4A4C
:10058400934206D1274B1B6B264A43F002031363A5
:1005940040E07B68254A934206D1224B1B6B214ADB
:1005A40043F00403136335E07B68214A934231D15D
:1005B4001C4B1B6B1B4A43F0080313632AE07B6844
:1005C400174A934206D1174B1B6B164A23F00103BB
:1005D40013631FE07B68144A934206D1114B1B6BD3
:1005E400104A23F00203136314E07B680F4A93421A
:1005F40006D10C4B1B6B0B4A23F00403136309E075
:100604007B680B4A934205D1064B1B6B054A23F0CA
:100614000803136300BF0C37BD4680BC704700BF9E
:10062400000002400038024000040240000802407A
:10063400000C024080B586B000AF78607B681B6810
:1006440001211846FFF786FF00237B617B685B79F5
:10065400032B00F2BF807B685B791A467B681B79A9
:100664005B0002FA03F31A467B6913437B617B68E0
:100674001B681A687B681B79194603238B40DB438C
:1006840019467B681B680A401A607B681B681968F6
:100694007B681B687A690A431A607B689B791A46EF
:1006A4007B681B795B0002FA03F31A467B691343E8
:1006B4007B617B681B689A687B681B7919460323F6
:1006C4008B40DB4319467B681B680A409A607B6851
:1006D4001B6899687B681B687A690A439A607B681F
:1006E400DB791A467B681B795B0002FA03F31A462E
:1006F4007B6913437B617B681B68DA687B681B79C1
:100704005B00032101FA03F3DB4319467B681B6892
:100714000A40DA607B681B68D9687B681B687A6961
:100724000A43DA607B681B7A1A467B681B7902FAF3
:1007340003F31A467B6913437B617B681B685A6821
:100744007B681B79194603238B40DB4319467B687E
:100754001B680A405A607B681B6859687B681B6881
:100764007A690A435A607B685B79022B40F0C68041
:100774007B681B79DB083B747B681B7903F00703F8
:10078400FB737B681B683A7C083253F82210FB7BAE
:100794000F2202FA03F3DB4318467B681B683A7C9A
:1007A4000140083243F822107B681B683A7C083207
:1007B40053F822107B685B7A1A46FB7B9B0002FA93
:1007C40003F318467B681B683A7C0143083243F8FC
:1007D400221093E07B685B79042B17D1494BDB68CB
:1007E4007A681279114601228A401146454A0B4320
:1007F400D360444B9B687A681279114601228A407F
:10080400D24311463F4A0B40936035E07B685B79E5
:10081400052B17D13B4B9B687A681279114601224C
:100824008A401146374A0B439360364BDB687A683B
:100834001279114601228A40D2431146314A0B40B3
:10084400D36019E07B685B79062B15D12D4B9B682F
:100854007A681279114601228A401146294A0B43CB
:100864009360284BDB687A681279114601228A402A
:100874001146244A0B43D3607B681B799B08FB74A5
:100884007B681B7903F00303BB747B681B681E4AF7
:10089400934216D07B681B681C4A93420FD07B6836
:1008A4001B681B4A934208D07B681B68194A934211
:1008B40001D1032306E0002304E0022302E0012324
:1008C40000E000237B74144B5B6C134A43F48043B5
:1008D40053647A7CBB7C9B0002FA03F10F4AFB7CD5
:1008E400023342F82310074B1B687A6812791146C9
:1008F40001228A401146034A0B43136000BF183794
:10090400BD4680BD003C014000000240000402409E
:1009140000080240000C0240003802400038014048
:1009240080B485B000AF78600B46FB707B681A69B1
:10093400FB7822FA03F3DBB203F00103FB73FB7BC6
:1009440018461437BD4680BC704780B483B000AFEE
:10095400786039607B689A683B681340002B01D04B
:10096400012300E0002318460C37BD4680BC7047C5
:1009740080B483B000AF78600B46FB70FB78012B2A
:100984002BD17B682D4A934206D12D4B5B6C2C4AAC
:1009940043F4805353644BE07B682A4A934206D164
:1009A400274B1B6C264A43F48043136440E07B6866
:1009B400254A934206D1224B1B6C214A43F400433F
:1009C400136435E07B68214A934231D11C4B5B6C44
:1009D4001B4A43F4005353642AE07B68174A93424A
:1009E40006D1174B5B6C164A23F4805353641FE003
:1009F4007B68144A934206D1114B1B6C104A23F4B2
:100A04008043136414E07B680F4A934206D10C4B75
:100A14001B6C0B4A23F40043136409E07B680B4A04
:100A2400934205D1064B5B6C054A23F4005353648F
:100A340000BF0C37BD4680BC704700BF003001408A
:100A44000038024000380040003C004000340140BF
:100A540080B584B000AF78607B681B6801211846BC
:100A6400FFF786FF0023FB607B681B799B001A4617
:100A7400FB681343FB607B685B79012B04D1FB6843
:100A840023F40043FB6014E07B685B79022B04D100
:100A9400FB6843F40043FB600BE07B685B79032B4A
:100AA40007D1FB6823F40043FB60FB6843F48063D5
:100AB400FB607B689B7ADB001A46FB681343FB6090
:100AC4007B689B79DB021A46FB681343FB607B68F7
:100AD400DB791A46FB681343FB607B681B7A5B0077
:100AE4001A46FB681343FB607B685B7A5B021A4619
:100AF400FB681343FB607B681B68FA681A6000BFDD
:100B04001037BD4680BD80B584B000AFF860B960D1
:100B14007A60FB681B6803F00603062B2ED0FB6883
:100B24001B6843F04002FB681A6027E000BF022103
:100B3400F868FFF70AFF0346002BF8D0FB681B6830
:100B440003F40063002B0ED0BB681B881A46FB68B5
:100B5400DA607B68013B7B607B68013B7B60BB6840
:100B64000133BB600AE0BB681B781A46FB68DA6095
:100B74007B68013B7B60BB680133BB607B68002BF7
:100B8400D4D100BF00BF1037BD4680BD80B584B04E
:100B940000AFF860B9607A6027E000BF0121F8680F
:100BA400FFF7D3FE0346002BF8D0FB681B6803F461
:100BB4000063002B0ED0FB68DB689AB2BB681A8016
:100BC4007B68013B7B607B68013B7B60BB680133D6
:100BD400BB600AE0FB68DB68DAB2BB681A707B684A
:100BE400013B7B60BB680133BB607B68002BD4D1C5
:100BF40000BF00BF1037BD4680BD80B483B000AFD6
:100C040078600B46FB70FB78012B06D17B681B6870
:100C140043F040027B681A6005E07B681B6823F0A0
:100C240040027B681A6000BF0C37BD4680BC704729
:100C340080B483B000AF78600B46FB70FB78012B67
:100C440006D17B685B6843F004027B685A6005E068
:100C54007B685B6823F004027B685A6000BF0C3732
:100C6400BD4680BC704700000D488546AFF3008048
:100C74000C480D490D4A002302E0D458C4500433F3
:100C8400C4188C42F9D30A4A0A4C002301E01360C9
:100C94000432A242FBD300F011F8FFF715FCFEE783
:100CA400008001200000002000000020280D000822
:100CB400000000201C000020FEE7000070B50D4D70
:100CC4000D4C641BA4100026A64209D10B4D0C4CFC
:100CD40000F018F8641BA4100026A64205D170BDCC
:100CE40055F8043B98470136EEE755F8043B98471E
:100CF4000136F2E7200D0008200D0008200D000841
:100D0400240D0008F8B500BFF8BC08BC9E46704727
:0C0D1400F8B500BFF8BC08BC9E46704754
:040D2000B90100080D
:040D2400950100082D
:0400000508000C6D76
:00000001FF
