:020000040800F2
:1000000000800120710F0008C10F0008C10F000817
:10001000C10F0008C10F0008C10F00080000000058
:10002000000000000000000000000000C10F0008F8
:10003000C10F000800000000C10F0008C10F000838
:1000400000000000C10F0008C10F0008C10F000828
:10005000C10F0008C10F0008C10F0008C10F000840
:10006000F1030008C10F0008C10F0008C10F00080C
:10007000C10F0008C10F0008C10F0008C10F000820
:10008000C10F0008C10F0008C10F000800000000E8
:10009000000000000000000000000000C10F000888
:1000A000C10F0008C10F0008C10F0008C10F0008F0
:1000B000C10F0008C10F0008C10F0008C10F0008E0
:1000C000C10F0008C10F0008C10F0008C10F0008D0
:1000D00071030008C10F0008C10F000800000000F4
:1000E000C10F0008C10F0008C10F00080000000088
:1000F000000000000000000000000000C10F000828
:1001000000000000C10F0008C10F0008C10F000867
:1001100000000000000000000000000000000000DF
:10012000C10F0008C10F0008C10F0008C10F00086F
:10013000C10F0008000000000000000000000000E7
:10014000000000000000000000000000C10F0008D7
:10015000C10F0008C10F0008C10F0008C10F00083F
:10016000C10F0008C10F00080000000000000000DF
:10017000000000000000000000000000000000007F
:10018000000000000000000000000000000000006F
:04019000C10F000893
:1001940010B5054C237833B9044B13B10448AFF3BD
:1001A40000800123237010BD000000200000000027
:1001B4001C10000808B5034B1BB103490348AFF3F7
:1001C400008008BD00000000040000201C1000088E
:1001D40080B584B000AF144B7B6002237B7205238F
:1001E4007B7300233B730023FB720223BB720D233A
:1001F4003B723B1D184600F075F90F233B723B1D03
:10020400184600F06FF90E233B723B1D184600F0B0
:1002140069F90C233B723B1D184600F063F900BFDB
:100224001037BD4680BD00BF0004024080B588B0D1
:1002340000AF0C4B3B6001237B7101233B71042312
:10024400BB720023BB7100233B720023FB710023AC
:100254007B723B46184600F013FC00BF2037BD46B6
:1002640080BD00BF0038004080B584B000AF3B1DA6
:100274000C220021184600F0A2FE0D4B7B600223E5
:100284003B7204237B720023BB720123FB723B1D70
:10029400184600F027F90F21082000F01DFB01216A
:1002A400082000F095FA00BF1037BD4680BD00BF9E
:1002B400000C024080B582B000AFFF23FB71FFF752
:1002C400D3FFFFF785FFFFF7B1FF0121224800F0BC
:1002D4001DFD0121242000F02FFC204B00221A7068
:1002E40000BF1F4B1B78DBB2002BFAD00021082083
:1002F40000F06EFA0121184800F0EDFC12E000BF96
:10030400FB1D01221946174800F01BFD0346022B72
:10031400F6D000BF01221449124800F035FD03460F
:10032400012BF7D00D4B1B78DBB2002BE7D000BFBD
:100334008021094800F020FB0346002BF8D100215E
:10034400054800F0C8FC064B00221A700121082061
:1003540000F03EFAC1E700BF00380040310200203F
:10036400320200201C0000203002002080B500AFC3
:10037400024800F063FC00BF80BD00BF1C000020E9
:1003840080B483B000AF78600B46FB70FB78022B1F
:100394001FD1124B1B685A1C10490A60104A12786C
:1003A400D1B2104AD1540E4B1B78DBB2002B04D0CF
:1003B4000A4B1B68B3F5FA7F0BD10B4B01221A7061
:1003C400064B1B68013B074A0021D154034B002212
:1003D4001A6000BF0C37BD4680BC70473402002051
:1003E400300200203C0000203102002080B500AF24
:1003F400022000F0A1FA024B01221A7000BF80BD56
:100404003202002080B483B000AF78600B46FB70EA
:10041400FB78012B2BD17B682D4A934206D12D4BBF
:100424001B6B2C4A43F0010313634BE07B682A4A9D
:10043400934206D1274B1B6B264A43F002031363F6
:1004440040E07B68254A934206D1224B1B6B214A2C
:1004540043F00403136335E07B68214A934231D1AE
:100464001C4B1B6B1B4A43F0080313632AE07B6895
:10047400174A934206D1174B1B6B164A23F001030C
:1004840013631FE07B68144A934206D1114B1B6B24
:10049400104A23F00203136314E07B680F4A93426B
:1004A40006D10C4B1B6B0B4A23F00403136309E0C6
:1004B4007B680B4A934205D1064B1B6B054A23F01C
:1004C4000803136300BF0C37BD4680BC704700BFF0
:1004D40000000240003802400004024000080240CC
:1004E400000C024080B586B000AF78607B681B6862
:1004F40001211846FFF786FF00237B617B685B7947
:10050400032B00F2BF807B685B791A467B681B79FA
:100514005B0002FA03F31A467B6913437B617B6831
:100524001B681A687B681B79194603238B40DB43DD
:1005340019467B681B680A401A607B681B68196847
:100544007B681B687A690A431A607B689B791A4640
:100554007B681B795B0002FA03F31A467B69134339
:100564007B617B681B689A687B681B791946032347
:100574008B40DB4319467B681B680A409A607B68A2
:100584001B6899687B681B687A690A439A607B6870
:10059400DB791A467B681B795B0002FA03F31A467F
:1005A4007B6913437B617B681B68DA687B681B7912
:1005B4005B00032101FA03F3DB4319467B681B68E4
:1005C4000A40DA607B681B68D9687B681B687A69B3
:1005D4000A43DA607B681B7A1A467B681B7902FA45
:1005E40003F31A467B6913437B617B681B685A6873
:1005F4007B681B79194603238B40DB4319467B68D0
:100604001B680A405A607B681B6859687B681B68D2
:100614007A690A435A607B685B79022B40F0C68092
:100624007B681B79DB083B747B681B7903F0070349
:10063400FB737B681B683A7C083253F82210FB7BFF
:100644000F2202FA03F3DB4318467B681B683A7CEB
:100654000140083243F822107B681B683A7C083258
:1006640053F822107B685B7A1A46FB7B9B0002FAE4
:1006740003F318467B681B683A7C0143083243F84D
:10068400221093E07B685B79042B17D1494BDB681C
:100694007A681279114601228A401146454A0B4371
:1006A400D360444B9B687A681279114601228A40D0
:1006B400D24311463F4A0B40936035E07B685B7937
:1006C400052B17D13B4B9B687A681279114601229E
:1006D4008A401146374A0B439360364BDB687A688D
:1006E4001279114601228A40D2431146314A0B4005
:1006F400D36019E07B685B79062B15D12D4B9B6881
:100704007A681279114601228A401146294A0B431C
:100714009360284BDB687A681279114601228A407B
:100724001146244A0B43D3607B681B799B08FB74F6
:100734007B681B7903F00303BB747B681B681E4A48
:10074400934216D07B681B681C4A93420FD07B6887
:100754001B681B4A934208D07B681B68194A934262
:1007640001D1032306E0002304E0022302E0012375
:1007740000E000237B74144B5B6C134A43F4804306
:1007840053647A7CBB7C9B0002FA03F10F4AFB7C26
:10079400023342F82310074B1B687A68127911461A
:1007A40001228A401146034A0B43136000BF1837E5
:1007B400BD4680BD003C01400000024000040240F0
:1007C40000080240000C024000380240003801409A
:1007D40080B483B000AF03460A46FB711346BB7175
:1007E400BB79012B33D1FB791F2B0AD8344B1B68FF
:1007F400FA79012101FA02F21146314A0B431360DE
:1008040059E0FB791F2B0FD9FB793F2B0CD82D4BCB
:100814001B68FA7902F01F02012101FA02F2114663
:10082400284A0B43136046E0FB793F2B43D9FB79FD
:100834005F2B40D8244B1B68FA7902F03F02012158
:1008440001FA02F21146204A0B43136033E0FB79AC
:100854001F2B0AD81D4B1B68FA79012101FA02F2F9
:1008640011461A4A0B43136025E0FB791F2B0FD95D
:10087400FB793F2B0CD8164B1B68FA7902F01F0248
:10088400012101FA02F21146114A0B43136012E0EE
:10089400FB793F2B0FD9FB795F2B0CD80D4B1B68D1
:1008A400FA7902F03F02012101FA02F21146094AE3
:1008B4000B431360FFE700BF0C37BD4680BC704795
:1008C40000E100E004E100E008E100E080E100E094
:1008D40084E100E088E100E080B485B000AF034625
:1008E4000A46FB711346BB71BB799B08FB73BB794A
:1008F40003F00303BB73BB7B0133DBB2DB00DBB26E
:10090400043B7B73FB7B9B0003F1604303F564436F
:100914001A68F9797B7B01FA03F31946FB7B9B0088
:1009240003F1604303F564430A431A6000BF1437BC
:10093400BD4680BC7047000080B483B000AF03465E
:10094400FB710C4B5B69FA79012101FA02F2134045
:10095400002B09D0074B5B69FA79012101FA02F2F5
:100964001146044A0B43536100BF0C37BD4680BC9B
:10097400704700BF003C014080B483B000AF786092
:1009840039607B689A683B681340002B01D00123CF
:1009940000E0002318460C37BD4680BC70470000B9
:1009A40080B483B000AF78600B46FB70FB78012BFA
:1009B4002BD17B682D4A934206D12D4B5B6C2C4A7C
:1009C40043F4805353644BE07B682A4A934206D134
:1009D400274B1B6C264A43F48043136440E07B6836
:1009E400254A934206D1224B1B6C214A43F400430F
:1009F400136435E07B68214A934231D11C4B5B6C14
:100A04001B4A43F4005353642AE07B68174A934219
:100A140006D1174B5B6C164A23F4805353641FE0D2
:100A24007B68144A934206D1114B1B6C104A23F481
:100A34008043136414E07B680F4A934206D10C4B45
:100A44001B6C0B4A23F40043136409E07B680B4AD4
:100A5400934205D1064B5B6C054A23F4005353645F
:100A640000BF0C37BD4680BC704700BF003001405A
:100A74000038024000380040003C0040003401408F
:100A840080B584B000AF78607B681B68012118468C
:100A9400FFF786FF0023FB607B681B799B001A46E7
:100AA400FB681343FB607B685B79012B04D1FB6813
:100AB40023F40043FB6014E07B685B79022B04D1D0
:100AC400FB6843F40043FB600BE07B685B79032B1A
:100AD40007D1FB6823F40043FB60FB6843F48063A5
:100AE400FB607B689B7ADB001A46FB681343FB6060
:100AF4007B689B79DB021A46FB681343FB607B68C7
:100B0400DB791A46FB681343FB607B681B7A5B0046
:100B14001A46FB681343FB607B685B7A5B021A46E8
:100B2400FB681343FB607B681B68FA681A6000BFAC
:100B34001037BD4680BD000080B483B000AF0346CB
:100B44000A46FB711346BB71BB79012B33D1FB7988
:100B54001F2B0AD8364B1B68FA79012101FA02F2DD
:100B64001146334A0B4313605CE0FB791F2B0FD90A
:100B7400FB793F2B0CD82F4B1B68FA7902F01F022C
:100B8400012101FA02F211462A4A0B43136049E09B
:100B9400FB793F2B46D9FB795F2B43D8264B1B6847
:100BA400FA7902F03F02012101FA02F21146224AC7
:100BB4000B43136036E0FB791F2B0BD81C4B1B68CF
:100BC400FA79012101FA02F2D2431146184A0B4084
:100BD400136027E0FB791F2B10D9FB793F2B0DD82D
:100BE400144B1B68FA7902F01F02012101FA02F288
:100BF400D24311460F4A0B40136013E0FB793F2B9D
:100C040010D9FB795F2B0DD80B4B1B68FA7902F0D6
:100C14003F02012101FA02F2D2431146064A0B4077
:100C24001360FFE700BF0C37BD4680BC704700BFB0
:100C340000E100E004E100E008E100E080B584B0F8
:100C440000AF78607B681B689B68DBB203F002032B
:100C5400FB737B681B685B68DBB223F07F03BB73A9
:100C6400FB7B002B05D0BB7B002B02D0786800F007
:100C7400AEF87B681B689B68DBB203F00103FB736F
:100C84007B681B685B68DBB203F04003BB73FB7BD0
:100C9400002B05D0BB7B002B02D0786800F0D7F87E
:100CA4007B681B689B68DBB203F04003FB737B68C3
:100CB4001B685B68DBB203F02003BB73FB7B002B78
:100CC40005D0BB7B002B02D0786800F002F900BF8E
:100CD4001037BD4680BD80B483B000AF78600B464A
:100CE400FB70FB78012B06D17B681B6843F0400244
:100CF4007B681A6005E07B681B6823F040027B6810
:100D04001A6000BF0C37BD4680BC704780B483B006
:100D140000AF78600B46FB70FB78012B06D17B6833
:100D24005B6843F004027B685A6005E07B685B689B
:100D340023F004027B685A6000BF0C37BD4680BCB8
:100D4400704780B487B000AFF860B9607A60FB6820
:100D54001B7FFB75FB7D022B10D0FB68BA68DA6041
:100D6400FB687A685A61FB6802221A77FB681B6881
:100D74005A68FB681B6842F080025A60FB7D184683
:100D84001C37BD4680BC704780B487B000AFF860A4
:100D9400B9607A60FB685B7FFB75FB7D012B10D02B
:100DA400FB68BA681A61FB687A689A61FB68012279
:100DB4005A77FB681B685A68FB681B6842F040025C
:100DC4005A60FB7D18461C37BD4680BC704780B511
:100DD40082B000AF78607B681B681B6803F4006313
:100DE400002B15D07B68DB681A887B681B68DA6087
:100DF4007B685B695A1E7B685A617B685B695A1E13
:100E04007B685A617B68DB685A1C7B68DA600FE098
:100E14007B68DB681A787B681B68DA607B685B69CF
:100E24005A1E7B685A617B68DB685A1C7B68DA60EF
:100E34007B685B69002B06D1786800F062F80121B9
:100E44007868FFF79DFA00BF0837BD4680BD80B5BE
:100E540082B000AF78607B681B681B6803F4006392
:100E6400002B16D07B681B68DA687B681B6992B21A
:100E74001A807B689B695A1E7B689A617B689B69B0
:100E84005A1E7B689A617B681B695A1C7B681A61CD
:100E940010E07B681B68DA687B681B69D2B21A7041
:100EA4007B689B695A1E7B689A617B681B695A1C24
:100EB4007B681A617B689B69002B06D1786800F017
:100EC4003AF802217868FFF75BFA00BF0837BD469D
:100ED40080BD80B584B000AF78607B681B7F022B37
:100EE40007D07B681B68DB68FB737B681B689B68A7
:100EF400FB7303217868FFF743FA00BF1037BD4640
:100F040080BD80B483B000AF78607B681B685A688A
:100F14007B681B6822F080025A607B680022DA60DA
:100F24007B6800225A617B6800221A7700BF0C3765
:100F3400BD4680BC704780B483B000AF78607B68E6
:100F44001B685A687B681B6822F040025A607B6801
:100F540000221A617B6800229A617B6800225A771A
:100F640000BF0C37BD4680BC704700000D48854665
:100F7400AFF300800C480D490D4A002302E0D45819
:100F8400C4500433C4188C42F9D30A4A0A4C0023CF
:100F940001E013600432A242FBD300F019F8FFF71A
:100FA40089F9FEE7008001200000002000000020F5
:100FB4003C1000080000002038020020FEE7024434
:100FC4000346934200D1704703F8011BF9E7000080
:100FD40070B50D4D0D4C641BA4100026A64209D11A
:100FE4000B4D0C4C00F018F8641BA4100026A6420C
:100FF40005D170BD55F8043B98470136EEE755F826
:10100400043B98470136F2E7341000083410000816
:101014003410000838100008F8B500BFF8BC08BC4C
:101024009E467047F8B500BFF8BC08BC9E467047A2
:04103400B9010008F6
:041038009501000816
:0400000508000F716F
:00000001FF
