:020000040800F2
:1000000000800120490800089908000899080008A4
:1000100099080008990800089908000800000000E5
:100020000000000000000000000000009908000827
:1000300099080008000000009908000899080008C5
:1000400000000000990800089908000899080008B5
:100050009908000899080008990200089908000802
:1000600099080008990800089908000899080008EC
:1000700099080008990800089908000899080008DC
:100080009908000899080008990800080000000075
:1000900000000000000000000000000099080008B7
:1000A00099080008990800089908000899080008AC
:1000B000990800089908000899080008990800089C
:1000C000990800089908000899080008990800088C
:1000D0009908000899080008990800080000000025
:1000E0009908000899080008990800080000000015
:1000F0000000000000000000000000009908000857
:1001000000000000990800089908000899080008F4
:1001100000000000000000000000000000000000DF
:10012000990800089908000899080008990800082B
:100130009908000800000000000000000000000016
:100140000000000000000000000000009908000806
:1001500099080008990800089908000899080008FB
:10016000990800089908000800000000000000003D
:10017000000000000000000000000000000000007F
:10018000000000000000000000000000000000006F
:0401900099080008C2
:1001940010B5054C237833B9044B13B10448AFF3BD
:1001A40000800123237010BD000000200000000027
:1001B400F408000808B5034B1BB103490348AFF327
:1001C400008008BD0000000004000020F4080008BE
:1001D40090B482B000AF4FF000024FF00003C7E9C3
:1001E400002306E0D7E90023501C43F10001C7E9CE
:1001F4000001D7E90023054CA24273F10003F1DBAF
:1002040000BF00BF0837BD4690BC704790D00300C4
:1002140080B586B000AF07F10C030C22002118460C
:1002240000F039FB1A4BFB6003233B7401237B74FE
:1002340000233B750123FB740223BB740121144882
:1002440000F038F807F10C03184600F0A3F83B4619
:100254000C220021184600F01EFB0D4B3B600023CE
:100264003B7104237B710223BB710123FB710121C8
:10027400074800F01FF83B46184600F08BF80121B0
:10028400062000F00BFA06210F2000F08BFAFEE79F
:100294000000024080B500AFFFF79AFF002000F095
:1002A400B1FA0321024800F0E5F900BF80BD00BFA8
:1002B4000000024080B483B000AF78600B46FB704E
:1002C400FB78012B2BD17B682D4A934206D12D4B11
:1002D4001B6B2C4A43F0010313634BE07B682A4AEF
:1002E400934206D1274B1B6B264A43F00203136348
:1002F40040E07B68254A934206D1224B1B6B214A7E
:1003040043F00403136335E07B68214A934231D1FF
:100314001C4B1B6B1B4A43F0080313632AE07B68E6
:10032400174A934206D1174B1B6B164A23F001035D
:1003340013631FE07B68144A934206D1114B1B6B75
:10034400104A23F00203136314E07B680F4A9342BC
:1003540006D10C4B1B6B0B4A23F00403136309E017
:100364007B680B4A934205D1064B1B6B054A23F06D
:100374000803136300BF0C37BD4680BC704700BF41
:10038400000002400038024000040240000802401D
:10039400000C024080B584B000AF78607B681B68B5
:1003A40001211846FFF786FF7B685B79032B00F277
:1003B400BA807B685B791A467B681B795B0002FA1A
:1003C40003F33B737B681B681A687B681B791946C7
:1003D40003238B40DB4319467B681B680A401A6081
:1003E4007B681B6819683A7B7B681B680A431A6040
:1003F40000233B737B689B791A467B681B795B00FF
:1004040002FA03F33B737B681B689A687B681B7969
:10041400194603238B40DB4319467B681B680A405B
:100424009A607B681B6899683A7B7B681B680A43FF
:100434009A6000233B737B68DB791A467B681B79DF
:100444005B0002FA03F33B737B681B68DA687B6822
:100454001B79194603238B40DB4319467B681B68D1
:100464000A40DA607B681B68D9683A7B7B681B6842
:100474000A43DA6000233B737B681B7A1A467B6865
:100484001B7902FA03F33B737B681B685A687B6829
:100494001B79194603238B40DB4319467B681B6891
:1004A4000A405A607B681B6859683A7B7B681B6802
:1004B4000A435A6000233B737B685B79022B40F04C
:1004C400C6807B681B79DB08FB727B681B7903F0B1
:1004D4000703BB727B681B68FA7A083253F8221050
:1004E400BB7A0F2202FA03F3DB4318467B681B68CE
:1004F400FA7A0140083243F822107B681B68FA7AC2
:10050400083253F822107B685B7A1A46BB7A9B0048
:1005140002FA03F318467B681B68FA7A014308322F
:1005240043F8221093E07B685B79042B17D14A4B84
:10053400DB687A681279114601228A401146464ADC
:100544000B43D360444B9B687A68127911460122AD
:100554008A40D2431146404A0B40936035E07B68A1
:100564005B79052B17D13C4B9B687A68127911464D
:1005740001228A401146384A0B439360364BDB68AC
:100584007A681279114601228A40D2431146324ACE
:100594000B40D36019E07B685B79062B15D12E4B99
:1005A4009B687A681279114601228A4011462A4AC8
:1005B4000B439360284BDB687A6812791146012259
:1005C4008A401146244A0B43D3607B681B799B08FD
:1005D400FB737B681B7903F00303BB737B681B68A5
:1005E4001E4A934216D07B681B681D4A93420FD063
:1005F4007B681B681B4A934208D07B681B681A4AB5
:10060400934201D1032306E0002304E0022302E025
:10061400012300E000237B73144B5B6C134A43F407
:10062400804353647A7BBB7B9B0002FA03F1104A3C
:10063400FB7B023342F82310074B1B687A6812795C
:10064400114601228A401146034A0B43136000BF3E
:100654001037BD4680BD00BF003C01400000024091
:100664000004024000080240000C0240003802402E
:100674000038014080B483B000AF78600B46FB7053
:100684007B685B69FA78012101FA02F25A407B68BF
:100694005A6100BF0C37BD4680BC704780B483B03C
:1006A40000AF03460A46FB711346BB71BB79012BAD
:1006B40033D1FB791F2B0AD8344B1B68FA790121FB
:1006C40001FA02F21146314A0B43136059E0FB79F7
:1006D4001F2B0FD9FB793F2B0CD82D4B1B68FA79B4
:1006E40002F01F02012101FA02F21146284A0B43CB
:1006F400136046E0FB793F2B43D9FB795F2B40D84D
:10070400244B1B68FA7902F03F02012101FA02F23C
:100714001146204A0B43136033E0FB791F2B0AD8A0
:100724001D4B1B68FA79012101FA02F211461A4A9B
:100734000B43136025E0FB791F2B0FD9FB793F2B6B
:100744000CD8164B1B68FA7902F01F02012101FA3A
:1007540002F21146114A0B43136012E0FB793F2B5E
:100764000FD9FB795F2B0CD80D4B1B68FA7902F07B
:100774003F02012101FA02F21146094A0B431360B8
:10078400FFE700BF0C37BD4680BC704700E100E0C6
:1007940004E100E008E100E080E100E084E100E041
:1007A40088E100E080B485B000AF03460A46FB71DF
:1007B4001346BB71BB799B08FB73BB7903F003033E
:1007C400BB73BB7B0133DBB2DB00DBB2043B7B736B
:1007D400FB7B1B0103F1604303F564431A68F97959
:1007E4007B7B01FA03F31946FB7B1B0103F1604396
:1007F40003F564430A431A6000BF1437BD4680BC46
:100804007047000080B483B000AF0346FB710C4B0B
:100814005B69FA79012101FA02F21340002B09D035
:10082400074B5B69FA79012101FA02F21146044A85
:100834000B43536100BF0C37BD4680BC704700BFFB
:10084400003C01400D488546AFF300800C480D493B
:100854000D4A002302E0D458C4500433C4188C4217
:10086400F9D30A4A0A4C002301E013600432A2427D
:10087400FBD300F019F8FFF7CBFCFEE70080012062
:1008840000000020000000201409000800000020DF
:100894001C000020FEE702440346934200D1704747
:1008A40003F8011BF9E7000070B50D4D0D4C641BF6
:1008B400A4100026A64209D10B4D0C4C00F018F8E8
:1008C400641BA4100026A64205D170BD55F8043B54
:1008D40098470136EEE755F8043B98470136F2E7AE
:1008E4000C0900080C0900080C090008100900088C
:1008F400F8B500BFF8BC08BC9E467047F8B500BF09
:08090400F8BC08BC9E467047D8
:04090C00B901000825
:040910009501000845
:04000005080008499E
:00000001FF
